{
  "contractName": "VoteManager",
  "abi": [
    {
      "constant": true,
      "inputs": [],
      "name": "systemName",
      "outputs": [
        {
          "name": "",
          "type": "string"
        }
      ],
      "payable": false,
      "stateMutability": "view",
      "type": "function"
    },
    {
      "constant": true,
      "inputs": [
        {
          "name": "",
          "type": "uint256"
        }
      ],
      "name": "ballots",
      "outputs": [
        {
          "name": "isActive",
          "type": "bool"
        },
        {
          "name": "candidatesSize",
          "type": "uint256"
        }
      ],
      "payable": false,
      "stateMutability": "view",
      "type": "function"
    },
    {
      "constant": true,
      "inputs": [],
      "name": "owner",
      "outputs": [
        {
          "name": "",
          "type": "address"
        }
      ],
      "payable": false,
      "stateMutability": "view",
      "type": "function"
    },
    {
      "inputs": [],
      "payable": false,
      "stateMutability": "nonpayable",
      "type": "constructor"
    },
    {
      "constant": false,
      "inputs": [
        {
          "name": "x",
          "type": "string"
        }
      ],
      "name": "setSystemName",
      "outputs": [],
      "payable": false,
      "stateMutability": "nonpayable",
      "type": "function"
    },
    {
      "constant": false,
      "inputs": [
        {
          "name": "ballotId",
          "type": "uint256"
        },
        {
          "name": "voterId",
          "type": "uint256"
        },
        {
          "name": "candidateId",
          "type": "uint256"
        }
      ],
      "name": "vote",
      "outputs": [],
      "payable": false,
      "stateMutability": "nonpayable",
      "type": "function"
    },
    {
      "constant": false,
      "inputs": [
        {
          "name": "id",
          "type": "uint256"
        }
      ],
      "name": "endBallot",
      "outputs": [],
      "payable": false,
      "stateMutability": "nonpayable",
      "type": "function"
    },
    {
      "constant": true,
      "inputs": [],
      "name": "getBallots",
      "outputs": [
        {
          "name": "states",
          "type": "bool[]"
        },
        {
          "name": "candidatesSizes",
          "type": "uint256[]"
        }
      ],
      "payable": false,
      "stateMutability": "view",
      "type": "function"
    },
    {
      "constant": true,
      "inputs": [
        {
          "name": "ballotIndex",
          "type": "uint256"
        }
      ],
      "name": "getCandidateNamesForBallot",
      "outputs": [
        {
          "name": "",
          "type": "bytes32[]"
        }
      ],
      "payable": false,
      "stateMutability": "view",
      "type": "function"
    },
    {
      "constant": true,
      "inputs": [
        {
          "name": "ballotIndex",
          "type": "uint256"
        }
      ],
      "name": "getCandidatsForBallot",
      "outputs": [
        {
          "name": "names",
          "type": "bytes32[]"
        },
        {
          "name": "voteCounts",
          "type": "uint256[]"
        }
      ],
      "payable": false,
      "stateMutability": "view",
      "type": "function"
    },
    {
      "constant": true,
      "inputs": [
        {
          "name": "ballot",
          "type": "uint256"
        },
        {
          "name": "candidate",
          "type": "uint256"
        }
      ],
      "name": "getCandidateVoteCount",
      "outputs": [
        {
          "name": "",
          "type": "uint256"
        }
      ],
      "payable": false,
      "stateMutability": "view",
      "type": "function"
    },
    {
      "constant": true,
      "inputs": [
        {
          "name": "ballot",
          "type": "uint256"
        },
        {
          "name": "candidate",
          "type": "uint256"
        }
      ],
      "name": "getCandidate",
      "outputs": [
        {
          "name": "name",
          "type": "bytes32"
        },
        {
          "name": "voteCount",
          "type": "uint256"
        }
      ],
      "payable": false,
      "stateMutability": "view",
      "type": "function"
    }
  ],
  "bytecode": "0x60806040526040805190810160405280600f81526020017f54554c20766f74652073797374656d0000000000000000000000000000000000815250600090805190602001906200005192919062000394565b503480156200005f57600080fd5b50606080600080600033600160006101000a81548173ffffffffffffffffffffffffffffffffffffffff021916908373ffffffffffffffffffffffffffffffffffffffff1602179055506002604051908082528060200260200182016040528015620000da5781602001602082028038833980820191505090505b5094507f41000000000000000000000000000000000000000000000000000000000000008560008151811015156200010e57fe5b9060200190602002019060001916908160001916815250507f42000000000000000000000000000000000000000000000000000000000000008560018151811015156200015757fe5b9060200190602002019060001916908160001916815250506001604051908082528060200260200182016040528015620001a05781602001602082028038833980820191505090505b50935062033507846000815181101515620001b757fe5b90602001906020020181815250506002604080519081016040528060011515815260200160028152509080600181540180825580915050906001820390600052602060002090600402016000909192909190915060008201518160000160006101000a81548160ff0219169083151502179055506020820151816001015550505060026001600280549050038154811015156200025057fe5b90600052602060002090600402019250600091505b6002821015620002e157604080519081016040528086848151811015156200028957fe5b9060200190602002015160001916815260200160008152508360020160008481526020019081526020016000206000820151816000019060001916905560208201518160010155905050818060010192505062000265565b600090505b8351811015620003895760408051908101604052806001151581526020016000151581525083600301600086848151811015156200032057fe5b90602001906020020151815260200190815260200160002060008201518160000160006101000a81548160ff02191690831515021790555060208201518160000160016101000a81548160ff0219169083151502179055509050508080600101915050620002e6565b505050505062000443565b828054600181600116156101000203166002900490600052602060002090601f016020900481019282601f10620003d757805160ff191683800117855562000408565b8280016001018555821562000408579182015b8281111562000407578251825591602001919060010190620003ea565b5b5090506200041791906200041b565b5090565b6200044091905b808211156200043c57600081600090555060010162000422565b5090565b90565b610e9480620004536000396000f3006080604052600436106100af576000357c0100000000000000000000000000000000000000000000000000000000900463ffffffff16806307dd2e4b146100b457806309578a2e14610144578063396aabeb146101c657806348fcc144146102115780634bd464481461023e5780635c632b38146102985780638a6655d6146102e45780638da5cb5b14610325578063a44b7f561461037c578063eb87c6dc146103e5578063f3f0449314610499575b600080fd5b3480156100c057600080fd5b506100c9610563565b6040518080602001828103825283818151815260200191508051906020019080838360005b838110156101095780820151818401526020810190506100ee565b50505050905090810190601f1680156101365780820380516001836020036101000a031916815260200191505b509250505060405180910390f35b34801561015057600080fd5b5061016f60048036038101908080359060200190929190505050610601565b6040518080602001828103825283818151815260200191508051906020019060200280838360005b838110156101b2578082015181840152602081019050610197565b505050509050019250505060405180910390f35b3480156101d257600080fd5b506101fb60048036038101908080359060200190929190803590602001909291905050506106d8565b6040518082815260200191505060405180910390f35b34801561021d57600080fd5b5061023c60048036038101908080359060200190929190505050610717565b005b34801561024a57600080fd5b506102736004803603810190808035906020019092919080359060200190929190505050610818565b6040518083600019166000191681526020018281526020019250505060405180910390f35b3480156102a457600080fd5b506102c360048036038101908080359060200190929190505050610890565b60405180831515151581526020018281526020019250505060405180910390f35b3480156102f057600080fd5b506103236004803603810190808035906020019092919080359060200190929190803590602001909291905050506108d0565b005b34801561033157600080fd5b5061033a610ad3565b604051808273ffffffffffffffffffffffffffffffffffffffff1673ffffffffffffffffffffffffffffffffffffffff16815260200191505060405180910390f35b34801561038857600080fd5b506103e3600480360381019080803590602001908201803590602001908080601f0160208091040260200160405190810160405280939291908181526020018383808284378201915050505050509192919290505050610af9565b005b3480156103f157600080fd5b506103fa610b13565b604051808060200180602001838103835285818151815260200191508051906020019060200280838360005b83811015610441578082015181840152602081019050610426565b50505050905001838103825284818151815260200191508051906020019060200280838360005b83811015610483578082015181840152602081019050610468565b5050505090500194505050505060405180910390f35b3480156104a557600080fd5b506104c460048036038101908080359060200190929190505050610c42565b604051808060200180602001838103835285818151815260200191508051906020019060200280838360005b8381101561050b5780820151818401526020810190506104f0565b50505050905001838103825284818151815260200191508051906020019060200280838360005b8381101561054d578082015181840152602081019050610532565b5050505090500194505050505060405180910390f35b60008054600181600116156101000203166002900480601f0160208091040260200160405190810160405280929190818152602001828054600181600116156101000203166002900480156105f95780601f106105ce576101008083540402835291602001916105f9565b820191906000526020600020905b8154815290600101906020018083116105dc57829003601f168201915b505050505081565b606080600060028481548110151561061557fe5b9060005260206000209060040201600101546040519080825280602002602001820160405280156106555781602001602082028038833980820191505090505b509150600090505b81518110156106ce5760028481548110151561067557fe5b906000526020600020906004020160020160008281526020019081526020016000206000015482828151811015156106a957fe5b906020019060200201906000191690816000191681525050808060010191505061065d565b8192505050919050565b60006002838154811015156106e957fe5b9060005260206000209060040201600201600083815260200190815260200160002060010154905092915050565b600160009054906101000a900473ffffffffffffffffffffffffffffffffffffffff1673ffffffffffffffffffffffffffffffffffffffff163373ffffffffffffffffffffffffffffffffffffffff161415156107dc576040517f08c379a00000000000000000000000000000000000000000000000000000000081526004018080602001828103825260128152602001807f4f776e65722d6f6e6c79206d6574686f642e000000000000000000000000000081525060200191505060405180910390fd5b60006002828154811015156107ed57fe5b906000526020600020906004020160000160006101000a81548160ff02191690831515021790555050565b60008060028481548110151561082a57fe5b906000526020600020906004020160020160008481526020019081526020016000206000015460028581548110151561085f57fe5b9060005260206000209060040201600201600085815260200190815260200160002060010154915091509250929050565b60028181548110151561089f57fe5b90600052602060002090600402016000915090508060000160009054906101000a900460ff16908060010154905082565b6002838154811015156108df57fe5b9060005260206000209060040201600301600083815260200190815260200160002060000160009054906101000a900460ff161515610986576040517f08c379a00000000000000000000000000000000000000000000000000000000081526004018080602001828103825260178152602001807f5468657265206973206e6f207375636820766f7465722e00000000000000000081525060200191505060405180910390fd5b60028381548110151561099557fe5b9060005260206000209060040201600301600083815260200190815260200160002060000160019054906101000a900460ff16151515610a3d576040517f08c379a000000000000000000000000000000000000000000000000000000000815260040180806020018281038252601d8152602001807f5468697320766f7465722068617320616c726561647920766f7465642e00000081525060200191505060405180910390fd5b6001600284815481101515610a4e57fe5b9060005260206000209060040201600301600084815260200190815260200160002060000160016101000a81548160ff021916908315150217905550600283815481101515610a9957fe5b9060005260206000209060040201600201600082815260200190815260200160002060010160008154809291906001019190505550505050565b600160009054906101000a900473ffffffffffffffffffffffffffffffffffffffff1681565b8060009080519060200190610b0f929190610dc3565b5050565b6060806060806000600280549050604051908082528060200260200182016040528015610b4f5781602001602082028038833980820191505090505b509250600280549050604051908082528060200260200182016040528015610b865781602001602082028038833980820191505090505b509150600090505b600280549050811015610c3557600281815481101515610baa57fe5b906000526020600020906004020160000160009054906101000a900460ff168382815181101515610bd757fe5b9060200190602002019015159081151581525050600281815481101515610bfa57fe5b9060005260206000209060040201600101548282815181101515610c1a57fe5b90602001906020020181815250508080600101915050610b8e565b8282945094505050509091565b6060806060806000600286815481101515610c5957fe5b906000526020600020906004020160010154604051908082528060200260200182016040528015610c995781602001602082028038833980820191505090505b509250600286815481101515610cab57fe5b906000526020600020906004020160010154604051908082528060200260200182016040528015610ceb5781602001602082028038833980820191505090505b509150600090505b8251811015610db557600286815481101515610d0b57fe5b90600052602060002090600402016002016000828152602001908152602001600020600001548382815181101515610d3f57fe5b906020019060200201906000191690816000191681525050600286815481101515610d6657fe5b90600052602060002090600402016002016000828152602001908152602001600020600101548282815181101515610d9a57fe5b90602001906020020181815250508080600101915050610cf3565b828294509450505050915091565b828054600181600116156101000203166002900490600052602060002090601f016020900481019282601f10610e0457805160ff1916838001178555610e32565b82800160010185558215610e32579182015b82811115610e31578251825591602001919060010190610e16565b5b509050610e3f9190610e43565b5090565b610e6591905b80821115610e61576000816000905550600101610e49565b5090565b905600a165627a7a72305820c1a50c49f4a2e174429a25881b0d2ae797106e47ddde7a0626144ff8825d59a60029",
  "source": "pragma solidity ^0.4.24;\r\n\r\ncontract VoteManager {\r\n    string public systemName = \"TUL vote system\";\r\n    address public owner;\r\n\r\n    struct Voter {\r\n        bool isAllowed;\r\n        bool hasVoted;\r\n    }\r\n\r\n    struct Candidate {\r\n        bytes32 name;\r\n        uint voteCount;\r\n    }\r\n\r\n    struct Ballot {\r\n        bool isActive;\r\n        uint candidatesSize;\r\n        mapping(uint => Candidate) candidates;\r\n        mapping(uint => Voter) voters;  //key means voter id (e.g. 210210)\r\n    }\r\n\r\n    Ballot[] public ballots;\r\n\r\n    constructor() public {\r\n        owner = msg.sender;\r\n\r\n        // rest of the constructor is only example ballot;\r\n        bytes32[] memory candidateNames = new bytes32[](2);\r\n        candidateNames[0] = \"A\"; \r\n        candidateNames[1] = \"B\"; \r\n\r\n        uint[] memory voters = new uint[](1);\r\n        voters[0] = 210183;\r\n\r\n        //create new ballot\r\n        ballots.push(Ballot(true, 2));\r\n        Ballot storage createdBallot = ballots[ballots.length - 1];\r\n\r\n        for(uint i = 0; i < 2; i++)\r\n        {\r\n            createdBallot.candidates[i] = Candidate({name: candidateNames[i], voteCount: 0});\r\n        }\r\n\r\n        for(uint v = 0; v < voters.length; v++)\r\n        {\r\n            createdBallot.voters[voters[v]] = Voter(true, false);\r\n        }\r\n    }\r\n\r\n    function setSystemName(string memory x) public {\r\n        systemName = x;\r\n    }\r\n\r\n    //TODO: possible security issue \r\n    function vote(uint ballotId, uint voterId, uint candidateId) public {\r\n        require(ballots[ballotId].voters[voterId].isAllowed, \"There is no such voter.\");\r\n        require(!ballots[ballotId].voters[voterId].hasVoted, \"This voter has already voted.\");\r\n\r\n        ballots[ballotId].voters[voterId].hasVoted = true;\r\n        ballots[ballotId].candidates[candidateId].voteCount++;\r\n    }\r\n\r\n    function endBallot(uint id) public onlyOwner {\r\n        ballots[id].isActive = false;\r\n    }\r\n\r\n    function getBallots() public view returns(bool[] memory states, uint[] memory candidatesSizes) {\r\n        bool[] memory ballotsState = new bool[](ballots.length);\r\n        uint[] memory ballotsCandidatesSizes = new uint[](ballots.length);\r\n        for(uint i = 0; i < ballots.length; i++)\r\n        {\r\n            ballotsState[i] = ballots[i].isActive;\r\n            ballotsCandidatesSizes[i] = ballots[i].candidatesSize;\r\n        }\r\n        return (ballotsState, ballotsCandidatesSizes);\r\n    }\r\n\r\n    function getCandidateNamesForBallot(uint ballotIndex) public view returns(bytes32[] memory) {\r\n        bytes32[] memory candidateNames = new bytes32[](ballots[ballotIndex].candidatesSize);\r\n        for(uint i = 0; i < candidateNames.length; i++)\r\n        {\r\n            candidateNames[i] = ballots[ballotIndex].candidates[i].name;\r\n        }\r\n\r\n        return candidateNames;\r\n    }\r\n\r\n    function getCandidatsForBallot(uint ballotIndex) public view returns(bytes32[] memory names, uint[] memory voteCounts) {\r\n        bytes32[] memory candidateNames = new bytes32[](ballots[ballotIndex].candidatesSize);\r\n        uint[] memory candidatesVotes = new uint[](ballots[ballotIndex].candidatesSize);\r\n        for(uint i = 0; i < candidateNames.length; i++)\r\n        {\r\n            candidateNames[i] = ballots[ballotIndex].candidates[i].name;\r\n            candidatesVotes[i] = ballots[ballotIndex].candidates[i].voteCount;\r\n        }\r\n\r\n        return (candidateNames, candidatesVotes);\r\n    }\r\n\r\n    function getCandidateVoteCount(uint ballot, uint candidate) public view returns(uint) {\r\n        return ballots[ballot].candidates[candidate].voteCount;\r\n    }\r\n\r\n    function getCandidate(uint ballot, uint candidate) public view returns(bytes32 name, uint voteCount) {\r\n        return (ballots[ballot].candidates[candidate].name, ballots[ballot].candidates[candidate].voteCount);\r\n    }\r\n\r\n    modifier onlyOwner() {\r\n        require(msg.sender == owner, \"Owner-only method.\");\r\n        _;\r\n    }\r\n}",
  "sourcePath": "C:\\Users\\Mateusz.Galasinski\\source\\repos\\VoteManagerContract\\Contracts\\contracts\\VoteManager.sol",
  "compiler": {
    "name": "solc",
    "version": "0.4.24+commit.e67f0147.Emscripten.clang"
  },
  "schemaVersion": "2.0.1",
  "updatedAt": "2018-12-16T12:23:32.075Z"
}