{
  "contractName": "VoteManager",
  "abi": [
    {
      "constant": true,
      "inputs": [],
      "name": "systemName",
      "outputs": [
        {
          "name": "",
          "type": "string"
        }
      ],
      "payable": false,
      "stateMutability": "view",
      "type": "function",
      "signature": "0x07dd2e4b"
    },
    {
      "constant": true,
      "inputs": [
        {
          "name": "",
          "type": "uint256"
        }
      ],
      "name": "ballots",
      "outputs": [
        {
          "name": "name",
          "type": "bytes32"
        },
        {
          "name": "isActive",
          "type": "bool"
        },
        {
          "name": "candidatesSize",
          "type": "uint256"
        }
      ],
      "payable": false,
      "stateMutability": "view",
      "type": "function",
      "signature": "0x5c632b38"
    },
    {
      "constant": true,
      "inputs": [],
      "name": "owner",
      "outputs": [
        {
          "name": "",
          "type": "address"
        }
      ],
      "payable": false,
      "stateMutability": "view",
      "type": "function",
      "signature": "0x8da5cb5b"
    },
    {
      "inputs": [],
      "payable": false,
      "stateMutability": "nonpayable",
      "type": "constructor",
      "signature": "constructor"
    },
    {
      "anonymous": false,
      "inputs": [
        {
          "indexed": true,
          "name": "name",
          "type": "bytes32"
        },
        {
          "indexed": true,
          "name": "ballot",
          "type": "uint256"
        }
      ],
      "name": "BallotCreation",
      "type": "event",
      "signature": "0x218de4eb5b4beb7ddff8b5909f0d3300ec7ef5439ead74a8e3381503c2609381"
    },
    {
      "anonymous": false,
      "inputs": [
        {
          "indexed": true,
          "name": "ballot",
          "type": "uint256"
        }
      ],
      "name": "BallotEnd",
      "type": "event",
      "signature": "0x22bd719ab927d287a1348ad43a9f33df8864f883e8e6c9d80d25b498f5556688"
    },
    {
      "anonymous": false,
      "inputs": [
        {
          "indexed": true,
          "name": "ballot",
          "type": "uint256"
        },
        {
          "indexed": true,
          "name": "candidate",
          "type": "uint256"
        }
      ],
      "name": "Voted",
      "type": "event",
      "signature": "0x84a5508ca0d85b42a876e75a9126f3ae7b43617ce60b170bf8805d34630bc654"
    },
    {
      "constant": false,
      "inputs": [
        {
          "name": "name",
          "type": "bytes32"
        },
        {
          "name": "candidateNames",
          "type": "bytes32[]"
        },
        {
          "name": "voters",
          "type": "uint256[]"
        }
      ],
      "name": "createBallot",
      "outputs": [],
      "payable": false,
      "stateMutability": "nonpayable",
      "type": "function",
      "signature": "0xaa55eb30"
    },
    {
      "constant": false,
      "inputs": [
        {
          "name": "x",
          "type": "string"
        }
      ],
      "name": "setSystemName",
      "outputs": [],
      "payable": false,
      "stateMutability": "nonpayable",
      "type": "function",
      "signature": "0xa44b7f56"
    },
    {
      "constant": false,
      "inputs": [
        {
          "name": "ballotId",
          "type": "uint256"
        },
        {
          "name": "voterId",
          "type": "uint256"
        },
        {
          "name": "candidateId",
          "type": "uint256"
        }
      ],
      "name": "vote",
      "outputs": [],
      "payable": false,
      "stateMutability": "nonpayable",
      "type": "function",
      "signature": "0x8a6655d6"
    },
    {
      "constant": false,
      "inputs": [
        {
          "name": "id",
          "type": "uint256"
        }
      ],
      "name": "endBallot",
      "outputs": [],
      "payable": false,
      "stateMutability": "nonpayable",
      "type": "function",
      "signature": "0x48fcc144"
    },
    {
      "constant": true,
      "inputs": [],
      "name": "getBallots",
      "outputs": [
        {
          "name": "states",
          "type": "bool[]"
        },
        {
          "name": "candidatesSizes",
          "type": "uint256[]"
        },
        {
          "name": "names",
          "type": "bytes32[]"
        }
      ],
      "payable": false,
      "stateMutability": "view",
      "type": "function",
      "signature": "0xeb87c6dc"
    },
    {
      "constant": true,
      "inputs": [
        {
          "name": "ballotIndex",
          "type": "uint256"
        }
      ],
      "name": "getCandidateNamesForBallot",
      "outputs": [
        {
          "name": "",
          "type": "bytes32[]"
        }
      ],
      "payable": false,
      "stateMutability": "view",
      "type": "function",
      "signature": "0x09578a2e"
    },
    {
      "constant": true,
      "inputs": [
        {
          "name": "ballotIndex",
          "type": "uint256"
        }
      ],
      "name": "getCandidatsForBallot",
      "outputs": [
        {
          "name": "names",
          "type": "bytes32[]"
        },
        {
          "name": "voteCounts",
          "type": "uint256[]"
        }
      ],
      "payable": false,
      "stateMutability": "view",
      "type": "function",
      "signature": "0xf3f04493"
    },
    {
      "constant": true,
      "inputs": [
        {
          "name": "ballot",
          "type": "uint256"
        },
        {
          "name": "candidate",
          "type": "uint256"
        }
      ],
      "name": "getCandidateVoteCount",
      "outputs": [
        {
          "name": "",
          "type": "uint256"
        }
      ],
      "payable": false,
      "stateMutability": "view",
      "type": "function",
      "signature": "0x396aabeb"
    },
    {
      "constant": true,
      "inputs": [
        {
          "name": "ballot",
          "type": "uint256"
        },
        {
          "name": "candidate",
          "type": "uint256"
        }
      ],
      "name": "getCandidate",
      "outputs": [
        {
          "name": "name",
          "type": "bytes32"
        },
        {
          "name": "voteCount",
          "type": "uint256"
        }
      ],
      "payable": false,
      "stateMutability": "view",
      "type": "function",
      "signature": "0x4bd46448"
    }
  ],
  "bytecode": "0x60806040526040805190810160405280600f81526020017f54554c20766f74652073797374656d0000000000000000000000000000000000815250600090805190602001906200005192919062000433565b503480156200005f57600080fd5b5033600160006101000a81548173ffffffffffffffffffffffffffffffffffffffff021916908373ffffffffffffffffffffffffffffffffffffffff16021790555060606002604051908082528060200260200182016040528015620000d45781602001602082028038833980820191505090505b5090507f41000000000000000000000000000000000000000000000000000000000000008160008151811015156200010857fe5b90602001906020020181815250507f42000000000000000000000000000000000000000000000000000000000000008160018151811015156200014757fe5b906020019060200201818152505060606005604051908082528060200260200182016040528015620001885781602001602082028038833980820191505090505b509050620335078160008151811015156200019f57fe5b90602001906020020181815250506000600190505b6005811015620001ea57808282815181101515620001ce57fe5b90602001906020020181815250508080600101915050620001b4565b50620002277f537570657200000000000000000000000000000000000000000000000000000083836200022f640100000000026401000000009004565b5050620004e2565b600060026060604051908101604052808681526020016001151581526020018551815250908060018154018082558091505090600182039060005260206000209060050201600090919290919091506000820151816000015560208201518160010160006101000a81548160ff02191690831515021790555060408201518160020155505090506000600260018303815481101515620002cb57fe5b9060005260206000209060050201905060008090505b84518110156200035357604080519081016040528086838151811015156200030557fe5b906020019060200201518152602001600081525082600301600083815260200190815260200160002060008201518160000155602082015181600101559050508080600101915050620002e1565b5060008090505b8351811015620003fd5760408051908101604052806001151581526020016000151581525082600401600086848151811015156200039457fe5b90602001906020020151815260200190815260200160002060008201518160000160006101000a81548160ff02191690831515021790555060208201518160000160016101000a81548160ff02191690831515021790555090505080806001019150506200035a565b5081857f218de4eb5b4beb7ddff8b5909f0d3300ec7ef5439ead74a8e3381503c260938160405160405180910390a35050505050565b828054600181600116156101000203166002900490600052602060002090601f016020900481019282601f106200047657805160ff1916838001178555620004a7565b82800160010185558215620004a7579182015b82811115620004a657825182559160200191906001019062000489565b5b509050620004b69190620004ba565b5090565b620004df91905b80821115620004db576000816000905550600101620004c1565b5090565b90565b6113cf80620004f26000396000f3fe6080604052600436106100ba576000357c0100000000000000000000000000000000000000000000000000000000900463ffffffff16806307dd2e4b146100bf57806309578a2e1461014f578063396aabeb146101df57806348fcc144146102385780634bd46448146102735780635c632b38146102d35780638a6655d6146103345780638da5cb5b14610383578063a44b7f56146103da578063aa55eb30146104a2578063eb87c6dc14610605578063f3f0449314610701575b600080fd5b3480156100cb57600080fd5b506100d46107d9565b6040518080602001828103825283818151815260200191508051906020019080838360005b838110156101145780820151818401526020810190506100f9565b50505050905090810190601f1680156101415780820380516001836020036101000a031916815260200191505b509250505060405180910390f35b34801561015b57600080fd5b506101886004803603602081101561017257600080fd5b8101908080359060200190929190505050610877565b6040518080602001828103825283818151815260200191508051906020019060200280838360005b838110156101cb5780820151818401526020810190506101b0565b505050509050019250505060405180910390f35b3480156101eb57600080fd5b506102226004803603604081101561020257600080fd5b810190808035906020019092919080359060200190929190505050610943565b6040518082815260200191505060405180910390f35b34801561024457600080fd5b506102716004803603602081101561025b57600080fd5b8101908080359060200190929190505050610982565b005b34801561027f57600080fd5b506102b66004803603604081101561029657600080fd5b810190808035906020019092919080359060200190929190505050610ab0565b604051808381526020018281526020019250505060405180910390f35b3480156102df57600080fd5b5061030c600480360360208110156102f657600080fd5b8101908080359060200190929190505050610b28565b6040518084815260200183151515158152602001828152602001935050505060405180910390f35b34801561034057600080fd5b506103816004803603606081101561035757600080fd5b81019080803590602001909291908035906020019092919080359060200190929190505050610b6e565b005b34801561038f57600080fd5b50610398610d9f565b604051808273ffffffffffffffffffffffffffffffffffffffff1673ffffffffffffffffffffffffffffffffffffffff16815260200191505060405180910390f35b3480156103e657600080fd5b506104a0600480360360208110156103fd57600080fd5b810190808035906020019064010000000081111561041a57600080fd5b82018360208201111561042c57600080fd5b8035906020019184600183028401116401000000008311171561044e57600080fd5b91908080601f016020809104026020016040519081016040528093929190818152602001838380828437600081840152601f19601f820116905080830192505050505050509192919290505050610dc5565b005b3480156104ae57600080fd5b50610603600480360360608110156104c557600080fd5b8101908080359060200190929190803590602001906401000000008111156104ec57600080fd5b8201836020820111156104fe57600080fd5b8035906020019184602083028401116401000000008311171561052057600080fd5b919080806020026020016040519081016040528093929190818152602001838360200280828437600081840152601f19601f8201169050808301925050505050505091929192908035906020019064010000000081111561058057600080fd5b82018360208201111561059257600080fd5b803590602001918460208302840111640100000000831117156105b457600080fd5b919080806020026020016040519081016040528093929190818152602001838360200280828437600081840152601f19601f820116905080830192505050505050509192919290505050610ddf565b005b34801561061157600080fd5b5061061a610fdc565b60405180806020018060200180602001848103845287818151815260200191508051906020019060200280838360005b8381101561066557808201518184015260208101905061064a565b50505050905001848103835286818151815260200191508051906020019060200280838360005b838110156106a757808201518184015260208101905061068c565b50505050905001848103825285818151815260200191508051906020019060200280838360005b838110156106e95780820151818401526020810190506106ce565b50505050905001965050505050505060405180910390f35b34801561070d57600080fd5b5061073a6004803603602081101561072457600080fd5b8101908080359060200190929190505050611187565b604051808060200180602001838103835285818151815260200191508051906020019060200280838360005b83811015610781578082015181840152602081019050610766565b50505050905001838103825284818151815260200191508051906020019060200280838360005b838110156107c35780820151818401526020810190506107a8565b5050505090500194505050505060405180910390f35b60008054600181600116156101000203166002900480601f01602080910402602001604051908101604052809291908181526020018280546001816001161561010002031660029004801561086f5780601f106108445761010080835404028352916020019161086f565b820191906000526020600020905b81548152906001019060200180831161085257829003601f168201915b505050505081565b60608060028381548110151561088957fe5b9060005260206000209060050201600201546040519080825280602002602001820160405280156108c95781602001602082028038833980820191505090505b50905060008090505b8151811015610939576002848154811015156108ea57fe5b9060005260206000209060050201600301600082815260200190815260200160002060000154828281518110151561091e57fe5b906020019060200201818152505080806001019150506108d2565b5080915050919050565b600060028381548110151561095457fe5b9060005260206000209060050201600301600083815260200190815260200160002060010154905092915050565b600160009054906101000a900473ffffffffffffffffffffffffffffffffffffffff1673ffffffffffffffffffffffffffffffffffffffff163373ffffffffffffffffffffffffffffffffffffffff16141515610a47576040517f08c379a00000000000000000000000000000000000000000000000000000000081526004018080602001828103825260128152602001807f4f776e65722d6f6e6c79206d6574686f642e000000000000000000000000000081525060200191505060405180910390fd5b6000600282815481101515610a5857fe5b906000526020600020906005020160010160006101000a81548160ff021916908315150217905550807f22bd719ab927d287a1348ad43a9f33df8864f883e8e6c9d80d25b498f555668860405160405180910390a250565b600080600284815481101515610ac257fe5b9060005260206000209060050201600301600084815260200190815260200160002060000154600285815481101515610af757fe5b9060005260206000209060050201600301600085815260200190815260200160002060010154915091509250929050565b600281815481101515610b3757fe5b90600052602060002090600502016000915090508060000154908060010160009054906101000a900460ff16908060020154905083565b600283815481101515610b7d57fe5b9060005260206000209060050201600401600083815260200190815260200160002060000160009054906101000a900460ff161515610c24576040517f08c379a00000000000000000000000000000000000000000000000000000000081526004018080602001828103825260178152602001807f5468657265206973206e6f207375636820766f7465722e00000000000000000081525060200191505060405180910390fd5b600283815481101515610c3357fe5b9060005260206000209060050201600401600083815260200190815260200160002060000160019054906101000a900460ff16151515610cdb576040517f08c379a000000000000000000000000000000000000000000000000000000000815260040180806020018281038252601d8152602001807f5468697320766f7465722068617320616c726561647920766f7465642e00000081525060200191505060405180910390fd5b6001600284815481101515610cec57fe5b9060005260206000209060050201600401600084815260200190815260200160002060000160016101000a81548160ff021916908315150217905550600283815481101515610d3757fe5b906000526020600020906005020160030160008281526020019081526020016000206001016000815480929190600101919050555080837f84a5508ca0d85b42a876e75a9126f3ae7b43617ce60b170bf8805d34630bc65460405160405180910390a3505050565b600160009054906101000a900473ffffffffffffffffffffffffffffffffffffffff1681565b8060009080519060200190610ddb9291906112fe565b5050565b600060026060604051908101604052808681526020016001151581526020018551815250908060018154018082558091505090600182039060005260206000209060050201600090919290919091506000820151816000015560208201518160010160006101000a81548160ff02191690831515021790555060408201518160020155505090506000600260018303815481101515610e7a57fe5b9060005260206000209060050201905060008090505b8451811015610eff5760408051908101604052808683815181101515610eb257fe5b906020019060200201518152602001600081525082600301600083815260200190815260200160002060008201518160000155602082015181600101559050508080600101915050610e90565b5060008090505b8351811015610fa6576040805190810160405280600115158152602001600015158152508260040160008684815181101515610f3e57fe5b90602001906020020151815260200190815260200160002060008201518160000160006101000a81548160ff02191690831515021790555060208201518160000160016101000a81548160ff0219169083151502179055509050508080600101915050610f06565b5081857f218de4eb5b4beb7ddff8b5909f0d3300ec7ef5439ead74a8e3381503c260938160405160405180910390a35050505050565b6060806060806002805490506040519080825280602002602001820160405280156110165781602001602082028038833980820191505090505b509050606060028054905060405190808252806020026020018201604052801561104f5781602001602082028038833980820191505090505b50905060606002805490506040519080825280602002602001820160405280156110885781602001602082028038833980820191505090505b50905060008090505b600280549050811015611175576002818154811015156110ad57fe5b906000526020600020906005020160010160009054906101000a900460ff1684828151811015156110da57fe5b90602001906020020190151590811515815250506002818154811015156110fd57fe5b906000526020600020906005020160020154838281518110151561111d57fe5b906020019060200201818152505060028181548110151561113a57fe5b906000526020600020906005020160000154828281518110151561115a57fe5b90602001906020020181815250508080600101915050611091565b50828282955095509550505050909192565b606080606060028481548110151561119b57fe5b9060005260206000209060050201600201546040519080825280602002602001820160405280156111db5781602001602082028038833980820191505090505b50905060606002858154811015156111ef57fe5b90600052602060002090600502016002015460405190808252806020026020018201604052801561122f5781602001602082028038833980820191505090505b50905060008090505b82518110156112f05760028681548110151561125057fe5b9060005260206000209060050201600301600082815260200190815260200160002060000154838281518110151561128457fe5b90602001906020020181815250506002868154811015156112a157fe5b906000526020600020906005020160030160008281526020019081526020016000206001015482828151811015156112d557fe5b90602001906020020181815250508080600101915050611238565b508181935093505050915091565b828054600181600116156101000203166002900490600052602060002090601f016020900481019282601f1061133f57805160ff191683800117855561136d565b8280016001018555821561136d579182015b8281111561136c578251825591602001919060010190611351565b5b50905061137a919061137e565b5090565b6113a091905b8082111561139c576000816000905550600101611384565b5090565b9056fea165627a7a72305820612b572574ed26420206dba3f0427a4867dbf9c5d715dd85e935d744d0a8fdac0029",
  "source": "pragma solidity ^0.5.0;\r\n\r\ncontract VoteManager {\r\n    string public systemName = \"TUL vote system\";\r\n    address public owner;\r\n    Ballot[] public ballots;\r\n\r\n    event BallotCreation (\r\n        bytes32 indexed name,\r\n        uint indexed ballot\r\n    );\r\n\r\n    event BallotEnd (\r\n        uint indexed ballot\r\n    );\r\n\r\n    event Voted (\r\n        uint indexed ballot,\r\n        uint indexed candidate\r\n    );\r\n\r\n    struct Voter {\r\n        bool isAllowed;\r\n        bool hasVoted;\r\n    }\r\n\r\n    struct Candidate {\r\n        bytes32 name;\r\n        uint voteCount;\r\n    }\r\n\r\n    struct Ballot {\r\n        bytes32 name;\r\n        bool isActive;\r\n        uint candidatesSize;\r\n        mapping(uint => Candidate) candidates;\r\n        mapping(uint => Voter) voters;  //key means voter id (e.g. 210210)\r\n    }\r\n\r\n    constructor() public {\r\n        owner = msg.sender;\r\n\r\n        // rest of the constructor is only example ballot;\r\n        bytes32[] memory candidateNames = new bytes32[](2);\r\n        candidateNames[0] = \"A\"; \r\n        candidateNames[1] = \"B\"; \r\n\r\n        // mocks\r\n        uint[] memory voters = new uint[](5);\r\n        voters[0] = 210183;\r\n        for(uint j = 1; j < 5; j++)\r\n        {\r\n            voters[j] = j;\r\n        }\r\n\r\n        createBallot(\"Super\", candidateNames, voters);\r\n    }\r\n\r\n    function createBallot(bytes32 name, bytes32[] memory candidateNames, uint[] memory voters) public{\r\n        uint newIndex = ballots.push(Ballot(name, true, candidateNames.length));\r\n        Ballot storage createdBallot = ballots[newIndex - 1];\r\n        for(uint i = 0; i < candidateNames.length; i++)\r\n        {\r\n            createdBallot.candidates[i] = Candidate({name: candidateNames[i], voteCount: 0});\r\n        }\r\n\r\n        for(uint v = 0; v < voters.length; v++)\r\n        {\r\n            createdBallot.voters[voters[v]] = Voter(true, false);\r\n        }\r\n\r\n        emit BallotCreation(name, newIndex);\r\n    }\r\n\r\n    function setSystemName(string memory x) public {\r\n        systemName = x;\r\n    }\r\n\r\n    function vote(uint ballotId, uint voterId, uint candidateId) public {\r\n        require(ballots[ballotId].voters[voterId].isAllowed, \"There is no such voter.\");\r\n        require(!ballots[ballotId].voters[voterId].hasVoted, \"This voter has already voted.\");\r\n\r\n        ballots[ballotId].voters[voterId].hasVoted = true;\r\n        ballots[ballotId].candidates[candidateId].voteCount++;\r\n\r\n        emit Voted(ballotId, candidateId);\r\n    }\r\n\r\n    function endBallot(uint id) public onlyOwner {\r\n        ballots[id].isActive = false;\r\n        emit BallotEnd(id);\r\n    }\r\n\r\n    function getBallots() public view returns(bool[] memory states, uint[] memory candidatesSizes, bytes32[] memory names) {\r\n        bool[] memory ballotsState = new bool[](ballots.length);\r\n        uint[] memory ballotsCandidatesSizes = new uint[](ballots.length);\r\n        bytes32[] memory ballotsNames = new bytes32[](ballots.length);\r\n        for(uint i = 0; i < ballots.length; i++)\r\n        {\r\n            ballotsState[i] = ballots[i].isActive;\r\n            ballotsCandidatesSizes[i] = ballots[i].candidatesSize;\r\n            ballotsNames[i] = ballots[i].name;\r\n        }\r\n        return (ballotsState, ballotsCandidatesSizes, ballotsNames);\r\n    }\r\n\r\n    function getCandidateNamesForBallot(uint ballotIndex) public view returns(bytes32[] memory) {\r\n        bytes32[] memory candidateNames = new bytes32[](ballots[ballotIndex].candidatesSize);\r\n        for(uint i = 0; i < candidateNames.length; i++)\r\n        {\r\n            candidateNames[i] = ballots[ballotIndex].candidates[i].name;\r\n        }\r\n\r\n        return candidateNames;\r\n    }\r\n\r\n    function getCandidatsForBallot(uint ballotIndex) public view returns(bytes32[] memory names, uint[] memory voteCounts) {\r\n        bytes32[] memory candidateNames = new bytes32[](ballots[ballotIndex].candidatesSize);\r\n        uint[] memory candidatesVotes = new uint[](ballots[ballotIndex].candidatesSize);\r\n        for(uint i = 0; i < candidateNames.length; i++)\r\n        {\r\n            candidateNames[i] = ballots[ballotIndex].candidates[i].name;\r\n            candidatesVotes[i] = ballots[ballotIndex].candidates[i].voteCount;\r\n        }\r\n\r\n        return (candidateNames, candidatesVotes);\r\n    }\r\n\r\n    function getCandidateVoteCount(uint ballot, uint candidate) public view returns(uint) {\r\n        return ballots[ballot].candidates[candidate].voteCount;\r\n    }\r\n\r\n    function getCandidate(uint ballot, uint candidate) public view returns(bytes32 name, uint voteCount) {\r\n        return (ballots[ballot].candidates[candidate].name, ballots[ballot].candidates[candidate].voteCount);\r\n    }\r\n\r\n    modifier onlyOwner() {\r\n        require(msg.sender == owner, \"Owner-only method.\");\r\n        _;\r\n    }\r\n}",
  "sourcePath": "C:/Users/Mateusz/Desktop/IO/VoteManagerContract/Contracts/contracts/VoteManager.sol",
  "compiler": {
    "name": "solc",
    "version": "0.5.0+commit.1d4f565a.Emscripten.clang"
  },
  "schemaVersion": "3.0.0",
  "updatedAt": "2019-01-09T21:18:17.334Z",
  "devdoc": {
    "methods": {}
  },
  "userdoc": {
    "methods": {}
  }
}